:02000000582A7C
:06000600000000000800EC
:0E000C00213083120313FD00FD0B0A280800AB
:10001A000F3083120313FC004730FD00FD0B132839
:0A002A00FC0B132800000000080082
:1000340083120313D31B2028881321288817531BEA
:100044002528081326280817D31A2A2888122B28AB
:100054008816531A2F280812302808163F183428F7
:10006400081535280811881503208811D3193C2850
:1000740088133D2888175319412808134228081764
:10008400D318462888124728881653184B28081274
:100094004C2808163F1850280815512808118815AF
:1000A400032088113F1C58280D20592806200800D9
:1000B40083120313CE01D001D1011030D2000430D9
:1000C400510203188628F0308700520983168700EE
:1000D400032003200F3083120705F0007008CF00BF
:1000E4007008031980285008CE004F0803197E2891
:1000F400CF0CCF13CE0A77280430D100D20D521082
:0E0104000430D007D10A61284E08F000080030
:10011200831203133F104E08D3001A203F14080025
:10012200063083120313FD00FD0B95280000080022
:0E0132008312031341088A004008820008006F
:100140005A207008CA000F300705F0000319AA28CA
:0A0150009120A3284A08F0000800DF
:10015A00BF28803083120313CA00D228C030CA00D5
:10016A00D2289430CA00D228D430CA00D22880308B
:10017A00CA00D228831203134A08013A0319AE2887
:10018A004A08023A0319B3284A08033A0319B62857
:10019A004A08043A0319B928BC284B03F0004A0854
:1001AA00F0077008CA007008D3001A203F10CD016A
:1001BA004D084C07840000080319EB284D084C072A
:1001CA0084000008CE008920CD0ADD283F140800EB
:1001DA00FF28803083120313CA001229C030CA00D4
:1001EA0012299430CA001229D430CA001229803048
:1001FA00CA001229831203134A08013A0319EE2886
:10020A004A08023A0319F3284A08033A0319F62856
:10021A004A08043A0319F928FC284B03F0004A0853
:10022A00F0077008CA003F147008D3001A203F1064
:0A023A004C08D3001A203F140800FE
:10024400831203134A0884000008031936294A0854
:1002540084000008F1004B08840071080006031DA7
:100264003629CA0ACB0A22294A0884000008F00069
:100274004B0884000008F002F101031CF10308009C
:1002840083120313C401C501C601C701C8010130AB
:10029400D3001A200130CA000130CB002530CC0035
:1002A400AD20C201C30180304306F00080307002EB
:1002B400031D5E29043042020318E7294208443E24
:1002C40084000008003A031D70294208443EC90016
:1002D400A020490884007008800060294208443E38
:1002E40084000008013A031D7C294208443E84002E
:1002F400373080004208443E84000008023A031D5F
:1003040088294208443E8400383080004208443E34
:1003140084000008033A031D94294208443E8400E3
:10032400393080004208443E84000008053A031D29
:10033400A0294208443E8400343080004208443EF0
:1003440084000008063A031DAC294208443E840098
:10035400353080004208443E84000008073A031DFB
:10036400B8294208443E8400363080004208443EA6
:1003740084000008093A031DC4294208443E84004D
:10038400313080004208443E840000080A3A031DCC
:10039400D0294208443E8400323080004208443E62
:1003A400840000080B3A031DDC294208443E840003
:1003B400333080000230CA00420ACB005830CC00EF
:1003C400ED20C20A0319C30A55294430CA0020305B
:1003D400CB00222100307106031DF2290030700683
:0E03E400031DF7294A30F000F82942290800CD
:0A03F200FF30831603138700080094
:1003FC0099208A110A128000840AC00A0319C10AC2
:08040C00F003031DFE290800A6
:10041400831603138811081108128812081388130D
:1004240083128811081188130813881208120D20EA
:100434000D200D20881608168815032088110D201C
:100444008815032088110D208815032088110D209C
:1004540008128815032088110D208815032088119F
:10046400881288178815032088110D208813081610
:1004740088150320881108128815032088110D207F
:1004840088150320881108168815032088110D206B
:10049400081288150320881188170817881608166B
:0C04A4008815032088110D203F1408006B
:1004B000373083120313A0003430A1003230A20081
:1004C0003230A300A4014530A5006E30A600743080
:1004D000A7006530A8007230A9002030AA00503073
:1004E000AB006130AC007330AD007330AE007730DC
:1004F000AF006F30B0007230B1006430B2003A30FB
:10050000B3002030B400B5015730B6006530B700F5
:100510006C30B8006330B9006F30BA006D30BB008A
:100520006530BC002130BD00BE010A22F9210C302B
:100530008312D3001A2042210130D3001A20013047
:10054000CA000230CB003630CC00AD2083168601C5
:100550000130831286000630FB001330FC00AD3002
:10056000FD00FD0BB12AFC0BB12AFB0BB12A0000E8
:1005700000000608803A031DE42A0608013A031920
:10058000E42A0630FB001330FC00AD30FD00FD0B0B
:10059000C72AFC0BC72AFB0BC72A0000000006086D
:1005A000F000F00CF013700886000630FB001330EA
:1005B000FC00AD30FD00FD0BDB2AFC0BDB2AFB0B46
:1005C000DB2A00000000BD2A0630FB001330FC00CF
:1005D000AD30FD00FD0BEA2AFC0BEA2AFB0BEA2AF0
:1005E000000000000608F000F00D70107008860092
:1005F0000630FB001330FC00AD30FD00FD0BFE2A81
:10060000FC0BFE2AFB0BFE2A00000000B92A072B78
:02400E004A2F37
:00000001FF
